{
  "contractName": "Hospital",
  "abi": [
    {
      "constant": true,
      "inputs": [],
      "name": "addid",
      "outputs": [
        {
          "internalType": "address",
          "name": "",
          "type": "address"
        }
      ],
      "payable": false,
      "stateMutability": "view",
      "type": "function"
    },
    {
      "constant": true,
      "inputs": [
        {
          "internalType": "uint256",
          "name": "",
          "type": "uint256"
        }
      ],
      "name": "patAddress",
      "outputs": [
        {
          "internalType": "address",
          "name": "",
          "type": "address"
        }
      ],
      "payable": false,
      "stateMutability": "view",
      "type": "function"
    },
    {
      "constant": true,
      "inputs": [
        {
          "internalType": "uint256",
          "name": "",
          "type": "uint256"
        }
      ],
      "name": "patInfo",
      "outputs": [
        {
          "internalType": "string",
          "name": "name",
          "type": "string"
        },
        {
          "internalType": "string",
          "name": "dob",
          "type": "string"
        },
        {
          "internalType": "string",
          "name": "bGroup",
          "type": "string"
        },
        {
          "internalType": "bytes32",
          "name": "id",
          "type": "bytes32"
        }
      ],
      "payable": false,
      "stateMutability": "view",
      "type": "function"
    },
    {
      "constant": true,
      "inputs": [],
      "name": "uniid",
      "outputs": [
        {
          "internalType": "bytes32",
          "name": "",
          "type": "bytes32"
        }
      ],
      "payable": false,
      "stateMutability": "view",
      "type": "function"
    },
    {
      "constant": false,
      "inputs": [
        {
          "internalType": "string",
          "name": "_name",
          "type": "string"
        },
        {
          "internalType": "string",
          "name": "_hospital",
          "type": "string"
        },
        {
          "internalType": "string",
          "name": "_password",
          "type": "string"
        },
        {
          "internalType": "address",
          "name": "_index",
          "type": "address"
        }
      ],
      "name": "addDoctor",
      "outputs": [],
      "payable": false,
      "stateMutability": "nonpayable",
      "type": "function"
    },
    {
      "constant": true,
      "inputs": [
        {
          "internalType": "address",
          "name": "_index",
          "type": "address"
        }
      ],
      "name": "viewDoctor",
      "outputs": [
        {
          "internalType": "string",
          "name": "",
          "type": "string"
        },
        {
          "internalType": "string",
          "name": "",
          "type": "string"
        },
        {
          "internalType": "bool",
          "name": "",
          "type": "bool"
        }
      ],
      "payable": false,
      "stateMutability": "view",
      "type": "function"
    },
    {
      "constant": false,
      "inputs": [
        {
          "internalType": "string",
          "name": "_name",
          "type": "string"
        },
        {
          "internalType": "string",
          "name": "_dob",
          "type": "string"
        },
        {
          "internalType": "string",
          "name": "_bGroup",
          "type": "string"
        }
      ],
      "name": "addPatient",
      "outputs": [],
      "payable": false,
      "stateMutability": "nonpayable",
      "type": "function"
    },
    {
      "constant": true,
      "inputs": [
        {
          "internalType": "bytes32",
          "name": "_id",
          "type": "bytes32"
        }
      ],
      "name": "enterPatient",
      "outputs": [
        {
          "internalType": "address",
          "name": "",
          "type": "address"
        }
      ],
      "payable": false,
      "stateMutability": "view",
      "type": "function"
    }
  ],
  "bytecode": "0x60806040527fc888c9ce9e098d5864d3ded6ebcc140a12142263bace3a23a36f9905f12bd64a60001b60005533600160006101000a81548173ffffffffffffffffffffffffffffffffffffffff021916908373ffffffffffffffffffffffffffffffffffffffff16021790555034801561007857600080fd5b50613a1c806100886000396000f3fe60806040523480156200001157600080fd5b5060043610620000935760003560e01c80637d6934b111620000635780637d6934b11462000533578063b03a985d14620005a4578063ca93af7314620006e1578063e008483014620008735762000093565b806230e6d31462000098578063040c219d14620002ad5780630c380fc914620002cd5780631355cd8114620004c2575b600080fd5b620002ab60048036036080811015620000b057600080fd5b8101908080359060200190640100000000811115620000ce57600080fd5b820183602082011115620000e157600080fd5b803590602001918460018302840111640100000000831117156200010457600080fd5b91908080601f016020809104026020016040519081016040528093929190818152602001838380828437600081840152601f19601f820116905080830192505050505050509192919290803590602001906401000000008111156200016857600080fd5b8201836020820111156200017b57600080fd5b803590602001918460018302840111640100000000831117156200019e57600080fd5b91908080601f016020809104026020016040519081016040528093929190818152602001838380828437600081840152601f19601f820116905080830192505050505050509192919290803590602001906401000000008111156200020257600080fd5b8201836020820111156200021557600080fd5b803590602001918460018302840111640100000000831117156200023857600080fd5b91908080601f016020809104026020016040519081016040528093929190818152602001838380828437600081840152601f19601f820116905080830192505050505050509192919290803573ffffffffffffffffffffffffffffffffffffffff169060200190929190505050620008bf565b005b620002b762000bd6565b6040518082815260200191505060405180910390f35b620004c060048036036060811015620002e557600080fd5b81019080803590602001906401000000008111156200030357600080fd5b8201836020820111156200031657600080fd5b803590602001918460018302840111640100000000831117156200033957600080fd5b91908080601f016020809104026020016040519081016040528093929190818152602001838380828437600081840152601f19601f820116905080830192505050505050509192919290803590602001906401000000008111156200039d57600080fd5b820183602082011115620003b057600080fd5b80359060200191846001830284011164010000000083111715620003d357600080fd5b91908080601f016020809104026020016040519081016040528093929190818152602001838380828437600081840152601f19601f820116905080830192505050505050509192919290803590602001906401000000008111156200043757600080fd5b8201836020820111156200044a57600080fd5b803590602001918460018302840111640100000000831117156200046d57600080fd5b91908080601f016020809104026020016040519081016040528093929190818152602001838380828437600081840152601f19601f82011690508083019250505050505050919291929050505062000bdc565b005b620004f160048036036020811015620004da57600080fd5b81019080803590602001909291905050506200127b565b604051808273ffffffffffffffffffffffffffffffffffffffff1673ffffffffffffffffffffffffffffffffffffffff16815260200191505060405180910390f35b62000562600480360360208110156200054b57600080fd5b8101908080359060200190929190505050620012b8565b604051808273ffffffffffffffffffffffffffffffffffffffff1673ffffffffffffffffffffffffffffffffffffffff16815260200191505060405180910390f35b620005e960048036036020811015620005bc57600080fd5b81019080803573ffffffffffffffffffffffffffffffffffffffff16906020019092919050505062001425565b60405180806020018060200184151515158152602001838103835286818151815260200191508051906020019080838360005b83811015620006395780820151818401526020810190506200061c565b50505050905090810190601f168015620006675780820380516001836020036101000a031916815260200191505b50838103825285818151815260200191508051906020019080838360005b83811015620006a257808201518184015260208101905062000685565b50505050905090810190601f168015620006d05780820380516001836020036101000a031916815260200191505b509550505050505060405180910390f35b6200071060048036036020811015620006f957600080fd5b810190808035906020019092919050505062001642565b60405180806020018060200180602001858152602001848103845288818151815260200191508051906020019080838360005b838110156200076057808201518184015260208101905062000743565b50505050905090810190601f1680156200078e5780820380516001836020036101000a031916815260200191505b50848103835287818151815260200191508051906020019080838360005b83811015620007c9578082015181840152602081019050620007ac565b50505050905090810190601f168015620007f75780820380516001836020036101000a031916815260200191505b50848103825286818151815260200191508051906020019080838360005b838110156200083257808201518184015260208101905062000815565b50505050905090810190601f168015620008605780820380516001836020036101000a031916815260200191505b5097505050505050505060405180910390f35b6200087d62001854565b604051808273ffffffffffffffffffffffffffffffffffffffff1673ffffffffffffffffffffffffffffffffffffffff16815260200191505060405180910390f35b600160009054906101000a900473ffffffffffffffffffffffffffffffffffffffff1673ffffffffffffffffffffffffffffffffffffffff163373ffffffffffffffffffffffffffffffffffffffff161462000983576040517f08c379a000000000000000000000000000000000000000000000000000000000815260040180806020018281038252601b8152602001807f41646d696e2073686f756c6420626520746865204d616e61676572000000000081525060200191505060405180910390fd5b600560008273ffffffffffffffffffffffffffffffffffffffff1673ffffffffffffffffffffffffffffffffffffffff16815260200190815260200160002060009054906101000a900460ff161562000a44576040517f08c379a00000000000000000000000000000000000000000000000000000000081526004018080602001828103825260148152602001807f5573657220616c726561647920656e746572656400000000000000000000000081525060200191505060405180910390fd5b6000826040516020018082805190602001908083835b6020831062000a7f578051825260208201915060208101905060208303925062000a5a565b6001836020036101000a038019825116818451168082178552505050505050905001915050604051602081830303815290604052805190602001209050600054811462000acb57600080fd5b6001600560008473ffffffffffffffffffffffffffffffffffffffff1673ffffffffffffffffffffffffffffffffffffffff16815260200190815260200160002060006101000a81548160ff02191690831515021790555084600660008473ffffffffffffffffffffffffffffffffffffffff1673ffffffffffffffffffffffffffffffffffffffff168152602001908152602001600020908051906020019062000b789291906200187a565b5083600760008473ffffffffffffffffffffffffffffffffffffffff1673ffffffffffffffffffffffffffffffffffffffff168152602001908152602001600020908051906020019062000bce9291906200187a565b505050505050565b60035481565b600560003373ffffffffffffffffffffffffffffffffffffffff1673ffffffffffffffffffffffffffffffffffffffff16815260200190815260200160002060009054906101000a900460ff1662000c80576040517f08c379a000000000000000000000000000000000000000000000000000000000815260040180806020018281038252602b815260200180620039bd602b913960400191505060405180910390fd5b62000c8a62001901565b6040518060800160405280858152602001848152602001838152602001444287866040516020018085815260200184815260200183805190602001908083835b6020831062000cef578051825260208201915060208101905060208303925062000cca565b6001836020036101000a03801982511681845116808217855250505050505090500182805190602001908083835b6020831062000d42578051825260208201915060208101905060208303925062000d1d565b6001836020036101000a038019825116818451168082178552505050505050905001945050505050604051602081830303815290604052805190602001208152509050600a8190806001815401808255809150509060018203906000526020600020906004020160009091929091909150600082015181600001908051906020019062000dd19291906200192c565b50602082015181600101908051906020019062000df09291906200192c565b50604082015181600201908051906020019062000e0f9291906200192c565b5060608201518160030155505050806004600083606001518152602001908152602001600020600082015181600001908051906020019062000e539291906200192c565b50602082015181600101908051906020019062000e729291906200192c565b50604082015181600201908051906020019062000e919291906200192c565b506060820151816003015590505060008160000151826020015183604001518460600151600660003373ffffffffffffffffffffffffffffffffffffffff1673ffffffffffffffffffffffffffffffffffffffff168152602001908152602001600020600760003373ffffffffffffffffffffffffffffffffffffffff1673ffffffffffffffffffffffffffffffffffffffff16815260200190815260200160002060405162000f4190620019b3565b80806020018060200180602001878152602001806020018060200186810386528c818151815260200191508051906020019080838360005b8381101562000f9657808201518184015260208101905062000f79565b50505050905090810190601f16801562000fc45780820380516001836020036101000a031916815260200191505b5086810385528b818151815260200191508051906020019080838360005b8381101562000fff57808201518184015260208101905062000fe2565b50505050905090810190601f1680156200102d5780820380516001836020036101000a031916815260200191505b5086810384528a818151815260200191508051906020019080838360005b83811015620010685780820151818401526020810190506200104b565b50505050905090810190601f168015620010965780820380516001836020036101000a031916815260200191505b508681038352888181546001816001161561010002031660029004815260200191508054600181600116156101000203166002900480156200111c5780601f10620010f0576101008083540402835291602001916200111c565b820191906000526020600020905b815481529060010190602001808311620010fe57829003601f168201915b5050868103825287818154600181600116156101000203166002900481526020019150805460018160011615610100020316600290048015620011a35780601f106200117757610100808354040283529160200191620011a3565b820191906000526020600020905b8154815290600101906020018083116200118557829003601f168201915b50509b505050505050505050505050604051809103906000f080158015620011cf573d6000803e3d6000fd5b50905080600860008460600151815260200190815260200160002060006101000a81548173ffffffffffffffffffffffffffffffffffffffff021916908373ffffffffffffffffffffffffffffffffffffffff16021790555080600260006101000a81548173ffffffffffffffffffffffffffffffffffffffff021916908373ffffffffffffffffffffffffffffffffffffffff16021790555081606001516003819055505050505050565b600981815481106200128957fe5b906000526020600020016000915054906101000a900473ffffffffffffffffffffffffffffffffffffffff1681565b6000600560003373ffffffffffffffffffffffffffffffffffffffff1673ffffffffffffffffffffffffffffffffffffffff16815260200190815260200160002060009054906101000a900460ff166200135e576040517f08c379a000000000000000000000000000000000000000000000000000000000815260040180806020018281038252602b815260200180620039bd602b913960400191505060405180910390fd5b81600460008481526020019081526020016000206003015414620013ea576040517f08c379a00000000000000000000000000000000000000000000000000000000081526004018080602001828103825260158152602001807f50617469656e7420646f65736e2774206578697374000000000000000000000081525060200191505060405180910390fd5b6008600083815260200190815260200160002060009054906101000a900473ffffffffffffffffffffffffffffffffffffffff169050919050565b6060806000600660008573ffffffffffffffffffffffffffffffffffffffff1673ffffffffffffffffffffffffffffffffffffffff168152602001908152602001600020600760008673ffffffffffffffffffffffffffffffffffffffff1673ffffffffffffffffffffffffffffffffffffffff168152602001908152602001600020600560008773ffffffffffffffffffffffffffffffffffffffff1673ffffffffffffffffffffffffffffffffffffffff16815260200190815260200160002060009054906101000a900460ff16828054600181600116156101000203166002900480601f0160208091040260200160405190810160405280929190818152602001828054600181600116156101000203166002900480156200158e5780601f1062001562576101008083540402835291602001916200158e565b820191906000526020600020905b8154815290600101906020018083116200157057829003601f168201915b50505050509250818054600181600116156101000203166002900480601f0160208091040260200160405190810160405280929190818152602001828054600181600116156101000203166002900480156200162e5780601f1062001602576101008083540402835291602001916200162e565b820191906000526020600020905b8154815290600101906020018083116200161057829003601f168201915b505050505091509250925092509193909250565b600a81815481106200165057fe5b9060005260206000209060040201600091509050806000018054600181600116156101000203166002900480601f016020809104026020016040519081016040528092919081815260200182805460018160011615610100020316600290048015620017005780601f10620016d45761010080835404028352916020019162001700565b820191906000526020600020905b815481529060010190602001808311620016e257829003601f168201915b505050505090806001018054600181600116156101000203166002900480601f016020809104026020016040519081016040528092919081815260200182805460018160011615610100020316600290048015620017a25780601f106200177657610100808354040283529160200191620017a2565b820191906000526020600020905b8154815290600101906020018083116200178457829003601f168201915b505050505090806002018054600181600116156101000203166002900480601f016020809104026020016040519081016040528092919081815260200182805460018160011615610100020316600290048015620018445780601f10620018185761010080835404028352916020019162001844565b820191906000526020600020905b8154815290600101906020018083116200182657829003601f168201915b5050505050908060030154905084565b600260009054906101000a900473ffffffffffffffffffffffffffffffffffffffff1681565b828054600181600116156101000203166002900490600052602060002090601f016020900481019282601f10620018bd57805160ff1916838001178555620018ee565b82800160010185558215620018ee579182015b82811115620018ed578251825591602001919060010190620018d0565b5b509050620018fd9190620019c1565b5090565b6040518060800160405280606081526020016060815260200160608152602001600080191681525090565b828054600181600116156101000203166002900490600052602060002090601f016020900481019282601f106200196f57805160ff1916838001178555620019a0565b82800160010185558215620019a0579182015b828111156200199f57825182559160200191906001019062001982565b5b509050620019af9190620019c1565b5090565b611fd380620019ea83390190565b620019e691905b80821115620019e2576000816000905550600101620019c8565b5090565b9056fe60806040523480156200001157600080fd5b5060405162001fd338038062001fd3833981810160405260c08110156200003757600080fd5b81019080805160405193929190846401000000008211156200005857600080fd5b838201915060208201858111156200006f57600080fd5b82518660018202830111640100000000821117156200008d57600080fd5b8083526020830192505050908051906020019080838360005b83811015620000c3578082015181840152602081019050620000a6565b50505050905090810190601f168015620000f15780820380516001836020036101000a031916815260200191505b50604052602001805160405193929190846401000000008211156200011557600080fd5b838201915060208201858111156200012c57600080fd5b82518660018202830111640100000000821117156200014a57600080fd5b8083526020830192505050908051906020019080838360005b838110156200018057808201518184015260208101905062000163565b50505050905090810190601f168015620001ae5780820380516001836020036101000a031916815260200191505b5060405260200180516040519392919084640100000000821115620001d257600080fd5b83820191506020820185811115620001e957600080fd5b82518660018202830111640100000000821117156200020757600080fd5b8083526020830192505050908051906020019080838360005b838110156200023d57808201518184015260208101905062000220565b50505050905090810190601f1680156200026b5780820380516001836020036101000a031916815260200191505b5060405260200180519060200190929190805160405193929190846401000000008211156200029957600080fd5b83820191506020820185811115620002b057600080fd5b8251866001820283011164010000000082111715620002ce57600080fd5b8083526020830192505050908051906020019080838360005b8381101562000304578082015181840152602081019050620002e7565b50505050905090810190601f168015620003325780820380516001836020036101000a031916815260200191505b50604052602001805160405193929190846401000000008211156200035657600080fd5b838201915060208201858111156200036d57600080fd5b82518660018202830111640100000000821117156200038b57600080fd5b8083526020830192505050908051906020019080838360005b83811015620003c1578082015181840152602081019050620003a4565b50505050905090810190601f168015620003ef5780820380516001836020036101000a031916815260200191505b5060405250505085600090805190602001906200040e92919062000486565b5084600190805190602001906200042792919062000486565b5083600290805190602001906200044092919062000486565b508260038190555081600490805190602001906200046092919062000486565b5080600590805190602001906200047992919062000486565b5050505050505062000535565b828054600181600116156101000203166002900490600052602060002090601f016020900481019282601f10620004c957805160ff1916838001178555620004fa565b82800160010185558215620004fa579182015b82811115620004f9578251825591602001919060010190620004dc565b5b5090506200050991906200050d565b5090565b6200053291905b808211156200052e57600081600090555060010162000514565b5090565b90565b611a8e80620005456000396000f3fe60806040523480156200001157600080fd5b50600436106200006a5760003560e01c8063216185ed146200006f5780633aaa5920146200007b5780635f8ba2721462000172578063767800de14620001e35780637b0f9a36146200022f5780638eff3c29146200039c575b600080fd5b62000079620003ff565b005b62000085620007a6565b604051808060200180602001838103835285818151815260200191508051906020019080838360005b83811015620000cb578082015181840152602081019050620000ae565b50505050905090810190601f168015620000f95780820380516001836020036101000a031916815260200191505b50838103825284818151815260200191508051906020019080838360005b838110156200013457808201518184015260208101905062000117565b50505050905090810190601f168015620001625780820380516001836020036101000a031916815260200191505b5094505050505060405180910390f35b620001a1600480360360208110156200018a57600080fd5b8101908080359060200190929190505050620008f5565b604051808273ffffffffffffffffffffffffffffffffffffffff1673ffffffffffffffffffffffffffffffffffffffff16815260200191505060405180910390f35b620001ed62000932565b604051808273ffffffffffffffffffffffffffffffffffffffff1673ffffffffffffffffffffffffffffffffffffffff16815260200191505060405180910390f35b6200023962000958565b60405180806020018060200180602001858152602001848103845288818151815260200191508051906020019080838360005b83811015620002895780820151818401526020810190506200026c565b50505050905090810190601f168015620002b75780820380516001836020036101000a031916815260200191505b50848103835287818151815260200191508051906020019080838360005b83811015620002f2578082015181840152602081019050620002d5565b50505050905090810190601f168015620003205780820380516001836020036101000a031916815260200191505b50848103825286818151815260200191508051906020019080838360005b838110156200035b5780820151818401526020810190506200033e565b50505050905090810190601f168015620003895780820380516001836020036101000a031916815260200191505b5097505050505050505060405180910390f35b620003a662000b55565b6040518080602001828103825283818151815260200191508051906020019060200280838360005b83811015620003eb578082015181840152602081019050620003ce565b505050509050019250505060405180910390f35b6000806001600260046005604051620004189062000be5565b80806020018060200180602001806020018060200186810386528b818154600181600116156101000203166002900481526020019150805460018160011615610100020316600290048015620004b25780601f106200048657610100808354040283529160200191620004b2565b820191906000526020600020905b8154815290600101906020018083116200049457829003601f168201915b505086810385528a818154600181600116156101000203166002900481526020019150805460018160011615610100020316600290048015620005395780601f106200050d5761010080835404028352916020019162000539565b820191906000526020600020905b8154815290600101906020018083116200051b57829003601f168201915b5050868103845289818154600181600116156101000203166002900481526020019150805460018160011615610100020316600290048015620005c05780601f106200059457610100808354040283529160200191620005c0565b820191906000526020600020905b815481529060010190602001808311620005a257829003601f168201915b5050868103835288818154600181600116156101000203166002900481526020019150805460018160011615610100020316600290048015620006475780601f106200061b5761010080835404028352916020019162000647565b820191906000526020600020905b8154815290600101906020018083116200062957829003601f168201915b5050868103825287818154600181600116156101000203166002900481526020019150805460018160011615610100020316600290048015620006ce5780601f10620006a257610100808354040283529160200191620006ce565b820191906000526020600020905b815481529060010190602001808311620006b057829003601f168201915b50509a5050505050505050505050604051809103906000f080158015620006f9573d6000803e3d6000fd5b50905060078190806001815401808255809150509060018203906000526020600020016000909192909190916101000a81548173ffffffffffffffffffffffffffffffffffffffff021916908373ffffffffffffffffffffffffffffffffffffffff1602179055505080600660006101000a81548173ffffffffffffffffffffffffffffffffffffffff021916908373ffffffffffffffffffffffffffffffffffffffff16021790555050565b60608060046005818054600181600116156101000203166002900480601f016020809104026020016040519081016040528092919081815260200182805460018160011615610100020316600290048015620008465780601f106200081a5761010080835404028352916020019162000846565b820191906000526020600020905b8154815290600101906020018083116200082857829003601f168201915b50505050509150808054600181600116156101000203166002900480601f016020809104026020016040519081016040528092919081815260200182805460018160011615610100020316600290048015620008e65780601f10620008ba57610100808354040283529160200191620008e6565b820191906000526020600020905b815481529060010190602001808311620008c857829003601f168201915b50505050509050915091509091565b600781815481106200090357fe5b906000526020600020016000915054906101000a900473ffffffffffffffffffffffffffffffffffffffff1681565b600660009054906101000a900473ffffffffffffffffffffffffffffffffffffffff1681565b606080606060008060016002600354838054600181600116156101000203166002900480601f01602080910402602001604051908101604052809291908181526020018280546001816001161561010002031660029004801562000a005780601f10620009d45761010080835404028352916020019162000a00565b820191906000526020600020905b815481529060010190602001808311620009e257829003601f168201915b50505050509350828054600181600116156101000203166002900480601f01602080910402602001604051908101604052809291908181526020018280546001816001161561010002031660029004801562000aa05780601f1062000a745761010080835404028352916020019162000aa0565b820191906000526020600020905b81548152906001019060200180831162000a8257829003601f168201915b50505050509250818054600181600116156101000203166002900480601f01602080910402602001604051908101604052809291908181526020018280546001816001161561010002031660029004801562000b405780601f1062000b145761010080835404028352916020019162000b40565b820191906000526020600020905b81548152906001019060200180831162000b2257829003601f168201915b50505050509150935093509350935090919293565b6060600780548060200260200160405190810160405280929190818152602001828054801562000bdb57602002820191906000526020600020905b8160009054906101000a900473ffffffffffffffffffffffffffffffffffffffff1673ffffffffffffffffffffffffffffffffffffffff168152602001906001019080831162000b90575b5050505050905090565b610e668062000bf48339019056fe60806040526001600660006101000a81548160ff0219169083151502179055503480156200002c57600080fd5b5060405162000e6638038062000e66833981810160405260a08110156200005257600080fd5b81019080805160405193929190846401000000008211156200007357600080fd5b838201915060208201858111156200008a57600080fd5b8251866001820283011164010000000082111715620000a857600080fd5b8083526020830192505050908051906020019080838360005b83811015620000de578082015181840152602081019050620000c1565b50505050905090810190601f1680156200010c5780820380516001836020036101000a031916815260200191505b50604052602001805160405193929190846401000000008211156200013057600080fd5b838201915060208201858111156200014757600080fd5b82518660018202830111640100000000821117156200016557600080fd5b8083526020830192505050908051906020019080838360005b838110156200019b5780820151818401526020810190506200017e565b50505050905090810190601f168015620001c95780820380516001836020036101000a031916815260200191505b5060405260200180516040519392919084640100000000821115620001ed57600080fd5b838201915060208201858111156200020457600080fd5b82518660018202830111640100000000821117156200022257600080fd5b8083526020830192505050908051906020019080838360005b83811015620002585780820151818401526020810190506200023b565b50505050905090810190601f168015620002865780820380516001836020036101000a031916815260200191505b5060405260200180516040519392919084640100000000821115620002aa57600080fd5b83820191506020820185811115620002c157600080fd5b8251866001820283011164010000000082111715620002df57600080fd5b8083526020830192505050908051906020019080838360005b8381101562000315578082015181840152602081019050620002f8565b50505050905090810190601f168015620003435780820380516001836020036101000a031916815260200191505b50604052602001805160405193929190846401000000008211156200036757600080fd5b838201915060208201858111156200037e57600080fd5b82518660018202830111640100000000821117156200039c57600080fd5b8083526020830192505050908051906020019080838360005b83811015620003d2578082015181840152602081019050620003b5565b50505050905090810190601f168015620004005780820380516001836020036101000a031916815260200191505b5060405250505084600090805190602001906200041f9291906200048f565b508360019080519060200190620004389291906200048f565b508260029080519060200190620004519291906200048f565b5081600390805190602001906200046a9291906200048f565b508060049080519060200190620004839291906200048f565b5050505050506200053e565b828054600181600116156101000203166002900490600052602060002090601f016020900481019282601f10620004d257805160ff191683800117855562000503565b8280016001018555821562000503579182015b8281111562000502578251825591602001919060010190620004e5565b5b50905062000512919062000516565b5090565b6200053b91905b80821115620005375760008160009055506001016200051d565b5090565b90565b610918806200054e6000396000f3fe608060405234801561001057600080fd5b50600436106100575760003560e01c80631ed83fd41461005c5780634051ddac14610117578063c4a28d3a1461034a578063d13319c41461036c578063fee347ae146103ef575b600080fd5b6101156004803603602081101561007257600080fd5b810190808035906020019064010000000081111561008f57600080fd5b8201836020820111156100a157600080fd5b803590602001918460018302840111640100000000831117156100c357600080fd5b91908080601f016020809104026020016040519081016040528093929190818152602001838380828437600081840152601f19601f82011690508083019250505050505050919291929050505061041f565b005b61011f610439565b60405180806020018060200180602001806020018060200186810386528b818151815260200191508051906020019080838360005b8381101561016f578082015181840152602081019050610154565b50505050905090810190601f16801561019c5780820380516001836020036101000a031916815260200191505b5086810385528a818151815260200191508051906020019080838360005b838110156101d55780820151818401526020810190506101ba565b50505050905090810190601f1680156102025780820380516001836020036101000a031916815260200191505b50868103845289818151815260200191508051906020019080838360005b8381101561023b578082015181840152602081019050610220565b50505050905090810190601f1680156102685780820380516001836020036101000a031916815260200191505b50868103835288818151815260200191508051906020019080838360005b838110156102a1578082015181840152602081019050610286565b50505050905090810190601f1680156102ce5780820380516001836020036101000a031916815260200191505b50868103825287818151815260200191508051906020019080838360005b838110156103075780820151818401526020810190506102ec565b50505050905090810190601f1680156103345780820380516001836020036101000a031916815260200191505b509a505050505050505050505060405180910390f35b610352610768565b604051808215151515815260200191505060405180910390f35b61037461077f565b6040518080602001828103825283818151815260200191508051906020019080838360005b838110156103b4578082015181840152602081019050610399565b50505050905090810190601f1680156103e15780820380516001836020036101000a031916815260200191505b509250505060405180910390f35b61041d6004803603602081101561040557600080fd5b81019080803515159060200190929190505050610821565b005b806005908051906020019061043592919061083e565b5050565b606080606080606060006001600260036004848054600181600116156101000203166002900480601f0160208091040260200160405190810160405280929190818152602001828054600181600116156101000203166002900480156104e05780601f106104b5576101008083540402835291602001916104e0565b820191906000526020600020905b8154815290600101906020018083116104c357829003601f168201915b50505050509450838054600181600116156101000203166002900480601f01602080910402602001604051908101604052809291908181526020018280546001816001161561010002031660029004801561057c5780601f106105515761010080835404028352916020019161057c565b820191906000526020600020905b81548152906001019060200180831161055f57829003601f168201915b50505050509350828054600181600116156101000203166002900480601f0160208091040260200160405190810160405280929190818152602001828054600181600116156101000203166002900480156106185780601f106105ed57610100808354040283529160200191610618565b820191906000526020600020905b8154815290600101906020018083116105fb57829003601f168201915b50505050509250818054600181600116156101000203166002900480601f0160208091040260200160405190810160405280929190818152602001828054600181600116156101000203166002900480156106b45780601f10610689576101008083540402835291602001916106b4565b820191906000526020600020905b81548152906001019060200180831161069757829003601f168201915b50505050509150808054600181600116156101000203166002900480601f0160208091040260200160405190810160405280929190818152602001828054600181600116156101000203166002900480156107505780601f1061072557610100808354040283529160200191610750565b820191906000526020600020905b81548152906001019060200180831161073357829003601f168201915b50505050509050945094509450945094509091929394565b6000600660009054906101000a900460ff16905090565b606060058054600181600116156101000203166002900480601f0160208091040260200160405190810160405280929190818152602001828054600181600116156101000203166002900480156108175780601f106107ec57610100808354040283529160200191610817565b820191906000526020600020905b8154815290600101906020018083116107fa57829003601f168201915b5050505050905090565b80600660006101000a81548160ff02191690831515021790555050565b828054600181600116156101000203166002900490600052602060002090601f016020900481019282601f1061087f57805160ff19168380011785556108ad565b828001600101855582156108ad579182015b828111156108ac578251825591602001919060010190610891565b5b5090506108ba91906108be565b5090565b6108e091905b808211156108dc5760008160009055506001016108c4565b5090565b9056fea265627a7a723158208fc2d391b4ef102dbba70d68ef0d5b7d94dcd0ce3940ab3557759857a798ac7364736f6c63430005100032a265627a7a72315820e4900936521c69ccdfcf19bd230c81450fe531bfcb602f1df751290d3862d46f64736f6c634300051000324f6e6c7920417574686f72697a656420557365722063616e2061636365737320746865207265636f726473a265627a7a72315820401509d1dad34cf0dc40c75738048cbbe8f54c5fc53001b6a9f21c461cdb416c64736f6c63430005100032",
  "source": "pragma solidity >=0.4.25;\n\n// Contract for Home Page\ncontract Hospital {\n    struct Patient {\n        string name;\n        string dob;\n        string bGroup;\n        bytes32 id;\n    }\n    \n    bytes32 password = 0xc888c9ce9e098d5864d3ded6ebcc140a12142263bace3a23a36f9905f12bd64a;\n    address manager = msg.sender;\n    address public addid;\n    bytes32 public uniid;\n    \n    mapping(bytes32 => Patient) uniId;\n    mapping(address => bool) authAddress;\n    mapping(address => string) doctor;\n    mapping(address => string) hospital;\n    mapping(bytes32 => address) patid;\n    \n    address[] public patAddress;\n    Patient[] public patInfo;\n    \n    \n    \n    //Function adds new doctor (Only Contract deployer can add)\n    function addDoctor (string memory _name, string memory _hospital, string memory _password, address _index) public {\n        require(msg.sender == manager, \"Admin should be the Manager\");\n        require(!authAddress[_index], \"User already entered\");\n        bytes32 pass = keccak256(abi.encodePacked(_password));\n        \n        require(pass == password);\n        authAddress[_index] = true;\n        doctor[_index] = _name;\n        hospital[_index] = _hospital; \n\n    }\n    \n    \n    \n    // Function to view the doctor\n    function viewDoctor(address _index) public view returns (string memory, string memory, bool) {\n        return (\n            doctor[_index],\n            hospital[_index],\n            authAddress[_index]\n        );\n    }\n    \n    \n    \n    //Function to add patient (Only verified doctor can add patient)\n    function addPatient(string memory _name, string memory _dob, string memory _bGroup) public onlyOwner {\n        //Storing Patient's intitial data\n        Patient memory newPatient = Patient ({\n            name: _name,\n            dob: _dob,\n            bGroup: _bGroup,\n            id: keccak256(abi.encodePacked(block.difficulty, block.timestamp, _name, _bGroup))\n        }); \n        \n        patInfo.push(newPatient);\n        uniId[newPatient.id] = newPatient;\n        \n        //Call to Patient's personal records (Contract 2)\n        address pat = address(new PatHome(\n            newPatient.name,\n            newPatient.dob,\n            newPatient.bGroup,\n            newPatient.id,\n            doctor[msg.sender], \n            hospital[msg.sender] \n        ));\n        \n        patid[newPatient.id] = pat;\n        \n        addid = pat;\n        \n        uniid = newPatient.id;\n        \n    }\n    \n    \n    \n    //View patient's records using his unique ID\n    function enterPatient(bytes32 _id) public onlyOwner view returns (address){\n        require(uniId[_id].id == _id, \"Patient doesn't exist\");\n        \n        return (\n            patid[_id]  \n        );\n    }\n    \n    modifier onlyOwner {\n        require (authAddress[msg.sender], \"Only Authorized User can access the records\");\n        _;\n    }\n}\n\n\n\n\n\n//Contract to view records and ability to add new ones\ncontract PatHome {\n    string  name;\n    string  dob;\n    string  bGroup;\n    bytes32  id;\n    string doctor;\n    string hospital;\n    address public addr;\n\n    // To store all the Record Address of the patient\n    address[] public addedRecords;\n    \n    constructor(string memory _name, string memory _dob, string memory _bGroup, bytes32 _id, string memory _doctor, string memory _hospital) public {\n        name = _name;\n        dob = _dob;\n        bGroup = _bGroup;\n        id = _id;\n        doctor = _doctor;\n        hospital = _hospital;\n    }\n    \n    \n    //function to add a new record (call to the 3rd contract)\n    function addrecord() public {\n        address newRecord = address(new Record(name, dob, bGroup, doctor, hospital));\n        addedRecords.push(newRecord);\n        addr = newRecord;\n    }\n    \n    \n    //to fetch all the records\n    function getRecords() public view returns (address[] memory) {\n        return addedRecords;\n    }\n    \n    \n    //to get patient's summary\n    function getPatient() public view returns(string memory, string memory, string memory, bytes32) {\n        return (\n            name,\n            dob,\n            bGroup,\n            id\n        );\n    }\n    \n    \n    //to get doctor's summanry\n    function getDoctor() public view returns(string memory, string memory) {\n        return (\n          doctor,\n          hospital\n        );\n    }\n}\n\n\n\n\n\n//Contract to Add or view individual records\ncontract Record{\n    string name;\n    string dob;\n    string bGroup;\n    string doctor;\n    string hospital;\n    string recHash;\n    bool flag = true;\n    \n    constructor(string memory _name, string memory _dob, string memory _bGroup, string memory _doctor, string memory _hospital) public {\n        name = _name;\n        dob = _dob;\n        bGroup = _bGroup;\n        doctor = _doctor;\n        hospital = _hospital;\n    }\n    \n    function setHash(string memory _recHash) public {\n        recHash = _recHash;\n    }\n    \n    function getHash() public view returns (string memory) {\n        return recHash;\n    }\n    \n    function setvalidity(bool _flag) public {\n        flag = _flag;\n    } \n    \n    function getvalidity() public view returns (bool) {\n        return flag;\n    }\n    \n    function getSummary() public view returns(string memory, string memory, string memory, string memory, string memory) {\n        return (\n            name,\n            dob,\n            bGroup,\n            doctor,\n            hospital\n        );\n    }\n}\n",
  "sourcePath": "/home/shubhamskatel/patient/contracts/Hospital.sol",
  "compiler": {
    "name": "solc",
    "version": "0.5.16+commit.9c3226ce.Emscripten.clang"
  },
  "schemaVersion": "3.2.3",
  "updatedAt": "2021-02-24T07:30:19.361Z",
  "networkType": "ethereum",
  "devdoc": {
    "methods": {}
  },
  "userdoc": {
    "methods": {}
  }
}