{
  "contractName": "PatHome",
  "abi": [
    {
      "inputs": [
        {
          "internalType": "string",
          "name": "_name",
          "type": "string"
        },
        {
          "internalType": "string",
          "name": "_dob",
          "type": "string"
        },
        {
          "internalType": "string",
          "name": "_bGroup",
          "type": "string"
        },
        {
          "internalType": "bytes32",
          "name": "_id",
          "type": "bytes32"
        },
        {
          "internalType": "string",
          "name": "_doctor",
          "type": "string"
        },
        {
          "internalType": "string",
          "name": "_hospital",
          "type": "string"
        }
      ],
      "payable": false,
      "stateMutability": "nonpayable",
      "type": "constructor"
    },
    {
      "constant": true,
      "inputs": [
        {
          "internalType": "uint256",
          "name": "",
          "type": "uint256"
        }
      ],
      "name": "addedRecords",
      "outputs": [
        {
          "internalType": "contract Record",
          "name": "",
          "type": "address"
        }
      ],
      "payable": false,
      "stateMutability": "view",
      "type": "function"
    },
    {
      "constant": false,
      "inputs": [],
      "name": "addrecord",
      "outputs": [],
      "payable": false,
      "stateMutability": "nonpayable",
      "type": "function"
    },
    {
      "constant": true,
      "inputs": [],
      "name": "getRecords",
      "outputs": [
        {
          "internalType": "contract Record[]",
          "name": "",
          "type": "address[]"
        }
      ],
      "payable": false,
      "stateMutability": "view",
      "type": "function"
    },
    {
      "constant": true,
      "inputs": [],
      "name": "getPatient",
      "outputs": [
        {
          "internalType": "string",
          "name": "",
          "type": "string"
        },
        {
          "internalType": "string",
          "name": "",
          "type": "string"
        },
        {
          "internalType": "string",
          "name": "",
          "type": "string"
        },
        {
          "internalType": "bytes32",
          "name": "",
          "type": "bytes32"
        }
      ],
      "payable": false,
      "stateMutability": "view",
      "type": "function"
    },
    {
      "constant": true,
      "inputs": [],
      "name": "getDoctor",
      "outputs": [
        {
          "internalType": "string",
          "name": "",
          "type": "string"
        },
        {
          "internalType": "string",
          "name": "",
          "type": "string"
        }
      ],
      "payable": false,
      "stateMutability": "view",
      "type": "function"
    }
  ],
  "bytecode": "0x60806040523480156200001157600080fd5b5060405162001f1438038062001f14833981810160405260c08110156200003757600080fd5b81019080805160405193929190846401000000008211156200005857600080fd5b838201915060208201858111156200006f57600080fd5b82518660018202830111640100000000821117156200008d57600080fd5b8083526020830192505050908051906020019080838360005b83811015620000c3578082015181840152602081019050620000a6565b50505050905090810190601f168015620000f15780820380516001836020036101000a031916815260200191505b50604052602001805160405193929190846401000000008211156200011557600080fd5b838201915060208201858111156200012c57600080fd5b82518660018202830111640100000000821117156200014a57600080fd5b8083526020830192505050908051906020019080838360005b838110156200018057808201518184015260208101905062000163565b50505050905090810190601f168015620001ae5780820380516001836020036101000a031916815260200191505b5060405260200180516040519392919084640100000000821115620001d257600080fd5b83820191506020820185811115620001e957600080fd5b82518660018202830111640100000000821117156200020757600080fd5b8083526020830192505050908051906020019080838360005b838110156200023d57808201518184015260208101905062000220565b50505050905090810190601f1680156200026b5780820380516001836020036101000a031916815260200191505b5060405260200180519060200190929190805160405193929190846401000000008211156200029957600080fd5b83820191506020820185811115620002b057600080fd5b8251866001820283011164010000000082111715620002ce57600080fd5b8083526020830192505050908051906020019080838360005b8381101562000304578082015181840152602081019050620002e7565b50505050905090810190601f168015620003325780820380516001836020036101000a031916815260200191505b50604052602001805160405193929190846401000000008211156200035657600080fd5b838201915060208201858111156200036d57600080fd5b82518660018202830111640100000000821117156200038b57600080fd5b8083526020830192505050908051906020019080838360005b83811015620003c1578082015181840152602081019050620003a4565b50505050905090810190601f168015620003ef5780820380516001836020036101000a031916815260200191505b5060405250505085600090805190602001906200040e92919062000486565b5084600190805190602001906200042792919062000486565b5083600290805190602001906200044092919062000486565b508260038190555081600490805190602001906200046092919062000486565b5080600590805190602001906200047992919062000486565b5050505050505062000535565b828054600181600116156101000203166002900490600052602060002090601f016020900481019282601f10620004c957805160ff1916838001178555620004fa565b82800160010185558215620004fa579182015b82811115620004f9578251825591602001919060010190620004dc565b5b5090506200050991906200050d565b5090565b6200053291905b808211156200052e57600081600090555060010162000514565b5090565b90565b6119cf80620005456000396000f3fe60806040523480156200001157600080fd5b50600436106200005e5760003560e01c8063216185ed14620000635780633aaa5920146200006f5780635f8ba27214620001665780637b0f9a3614620001d75780638eff3c291462000344575b600080fd5b6200006d620003a7565b005b620000796200070d565b604051808060200180602001838103835285818151815260200191508051906020019080838360005b83811015620000bf578082015181840152602081019050620000a2565b50505050905090810190601f168015620000ed5780820380516001836020036101000a031916815260200191505b50838103825284818151815260200191508051906020019080838360005b83811015620001285780820151818401526020810190506200010b565b50505050905090810190601f168015620001565780820380516001836020036101000a031916815260200191505b5094505050505060405180910390f35b62000195600480360360208110156200017e57600080fd5b81019080803590602001909291905050506200085c565b604051808273ffffffffffffffffffffffffffffffffffffffff1673ffffffffffffffffffffffffffffffffffffffff16815260200191505060405180910390f35b620001e162000899565b60405180806020018060200180602001858152602001848103845288818151815260200191508051906020019080838360005b838110156200023157808201518184015260208101905062000214565b50505050905090810190601f1680156200025f5780820380516001836020036101000a031916815260200191505b50848103835287818151815260200191508051906020019080838360005b838110156200029a5780820151818401526020810190506200027d565b50505050905090810190601f168015620002c85780820380516001836020036101000a031916815260200191505b50848103825286818151815260200191508051906020019080838360005b8381101562000303578082015181840152602081019050620002e6565b50505050905090810190601f168015620003315780820380516001836020036101000a031916815260200191505b5097505050505050505060405180910390f35b6200034e62000a96565b6040518080602001828103825283818151815260200191508051906020019060200280838360005b838110156200039357808201518184015260208101905062000376565b505050509050019250505060405180910390f35b6000806001600260046005604051620003c09062000b26565b80806020018060200180602001806020018060200186810386528b8181546001816001161561010002031660029004815260200191508054600181600116156101000203166002900480156200045a5780601f106200042e576101008083540402835291602001916200045a565b820191906000526020600020905b8154815290600101906020018083116200043c57829003601f168201915b505086810385528a818154600181600116156101000203166002900481526020019150805460018160011615610100020316600290048015620004e15780601f10620004b557610100808354040283529160200191620004e1565b820191906000526020600020905b815481529060010190602001808311620004c357829003601f168201915b5050868103845289818154600181600116156101000203166002900481526020019150805460018160011615610100020316600290048015620005685780601f106200053c5761010080835404028352916020019162000568565b820191906000526020600020905b8154815290600101906020018083116200054a57829003601f168201915b5050868103835288818154600181600116156101000203166002900481526020019150805460018160011615610100020316600290048015620005ef5780601f10620005c357610100808354040283529160200191620005ef565b820191906000526020600020905b815481529060010190602001808311620005d157829003601f168201915b5050868103825287818154600181600116156101000203166002900481526020019150805460018160011615610100020316600290048015620006765780601f106200064a5761010080835404028352916020019162000676565b820191906000526020600020905b8154815290600101906020018083116200065857829003601f168201915b50509a5050505050505050505050604051809103906000f080158015620006a1573d6000803e3d6000fd5b50905060068190806001815401808255809150509060018203906000526020600020016000909192909190916101000a81548173ffffffffffffffffffffffffffffffffffffffff021916908373ffffffffffffffffffffffffffffffffffffffff1602179055505050565b60608060046005818054600181600116156101000203166002900480601f016020809104026020016040519081016040528092919081815260200182805460018160011615610100020316600290048015620007ad5780601f106200078157610100808354040283529160200191620007ad565b820191906000526020600020905b8154815290600101906020018083116200078f57829003601f168201915b50505050509150808054600181600116156101000203166002900480601f0160208091040260200160405190810160405280929190818152602001828054600181600116156101000203166002900480156200084d5780601f1062000821576101008083540402835291602001916200084d565b820191906000526020600020905b8154815290600101906020018083116200082f57829003601f168201915b50505050509050915091509091565b600681815481106200086a57fe5b906000526020600020016000915054906101000a900473ffffffffffffffffffffffffffffffffffffffff1681565b606080606060008060016002600354838054600181600116156101000203166002900480601f016020809104026020016040519081016040528092919081815260200182805460018160011615610100020316600290048015620009415780601f10620009155761010080835404028352916020019162000941565b820191906000526020600020905b8154815290600101906020018083116200092357829003601f168201915b50505050509350828054600181600116156101000203166002900480601f016020809104026020016040519081016040528092919081815260200182805460018160011615610100020316600290048015620009e15780601f10620009b557610100808354040283529160200191620009e1565b820191906000526020600020905b815481529060010190602001808311620009c357829003601f168201915b50505050509250818054600181600116156101000203166002900480601f01602080910402602001604051908101604052809291908181526020018280546001816001161561010002031660029004801562000a815780601f1062000a555761010080835404028352916020019162000a81565b820191906000526020600020905b81548152906001019060200180831162000a6357829003601f168201915b50505050509150935093509350935090919293565b6060600680548060200260200160405190810160405280929190818152602001828054801562000b1c57602002820191906000526020600020905b8160009054906101000a900473ffffffffffffffffffffffffffffffffffffffff1673ffffffffffffffffffffffffffffffffffffffff168152602001906001019080831162000ad1575b5050505050905090565b610e668062000b358339019056fe60806040526001600660006101000a81548160ff0219169083151502179055503480156200002c57600080fd5b5060405162000e6638038062000e66833981810160405260a08110156200005257600080fd5b81019080805160405193929190846401000000008211156200007357600080fd5b838201915060208201858111156200008a57600080fd5b8251866001820283011164010000000082111715620000a857600080fd5b8083526020830192505050908051906020019080838360005b83811015620000de578082015181840152602081019050620000c1565b50505050905090810190601f1680156200010c5780820380516001836020036101000a031916815260200191505b50604052602001805160405193929190846401000000008211156200013057600080fd5b838201915060208201858111156200014757600080fd5b82518660018202830111640100000000821117156200016557600080fd5b8083526020830192505050908051906020019080838360005b838110156200019b5780820151818401526020810190506200017e565b50505050905090810190601f168015620001c95780820380516001836020036101000a031916815260200191505b5060405260200180516040519392919084640100000000821115620001ed57600080fd5b838201915060208201858111156200020457600080fd5b82518660018202830111640100000000821117156200022257600080fd5b8083526020830192505050908051906020019080838360005b83811015620002585780820151818401526020810190506200023b565b50505050905090810190601f168015620002865780820380516001836020036101000a031916815260200191505b5060405260200180516040519392919084640100000000821115620002aa57600080fd5b83820191506020820185811115620002c157600080fd5b8251866001820283011164010000000082111715620002df57600080fd5b8083526020830192505050908051906020019080838360005b8381101562000315578082015181840152602081019050620002f8565b50505050905090810190601f168015620003435780820380516001836020036101000a031916815260200191505b50604052602001805160405193929190846401000000008211156200036757600080fd5b838201915060208201858111156200037e57600080fd5b82518660018202830111640100000000821117156200039c57600080fd5b8083526020830192505050908051906020019080838360005b83811015620003d2578082015181840152602081019050620003b5565b50505050905090810190601f168015620004005780820380516001836020036101000a031916815260200191505b5060405250505084600090805190602001906200041f9291906200048f565b508360019080519060200190620004389291906200048f565b508260029080519060200190620004519291906200048f565b5081600390805190602001906200046a9291906200048f565b508060049080519060200190620004839291906200048f565b5050505050506200053e565b828054600181600116156101000203166002900490600052602060002090601f016020900481019282601f10620004d257805160ff191683800117855562000503565b8280016001018555821562000503579182015b8281111562000502578251825591602001919060010190620004e5565b5b50905062000512919062000516565b5090565b6200053b91905b80821115620005375760008160009055506001016200051d565b5090565b90565b610918806200054e6000396000f3fe608060405234801561001057600080fd5b50600436106100575760003560e01c80631ed83fd41461005c5780634051ddac14610117578063c4a28d3a1461034a578063d13319c41461036c578063fee347ae146103ef575b600080fd5b6101156004803603602081101561007257600080fd5b810190808035906020019064010000000081111561008f57600080fd5b8201836020820111156100a157600080fd5b803590602001918460018302840111640100000000831117156100c357600080fd5b91908080601f016020809104026020016040519081016040528093929190818152602001838380828437600081840152601f19601f82011690508083019250505050505050919291929050505061041f565b005b61011f610439565b60405180806020018060200180602001806020018060200186810386528b818151815260200191508051906020019080838360005b8381101561016f578082015181840152602081019050610154565b50505050905090810190601f16801561019c5780820380516001836020036101000a031916815260200191505b5086810385528a818151815260200191508051906020019080838360005b838110156101d55780820151818401526020810190506101ba565b50505050905090810190601f1680156102025780820380516001836020036101000a031916815260200191505b50868103845289818151815260200191508051906020019080838360005b8381101561023b578082015181840152602081019050610220565b50505050905090810190601f1680156102685780820380516001836020036101000a031916815260200191505b50868103835288818151815260200191508051906020019080838360005b838110156102a1578082015181840152602081019050610286565b50505050905090810190601f1680156102ce5780820380516001836020036101000a031916815260200191505b50868103825287818151815260200191508051906020019080838360005b838110156103075780820151818401526020810190506102ec565b50505050905090810190601f1680156103345780820380516001836020036101000a031916815260200191505b509a505050505050505050505060405180910390f35b610352610768565b604051808215151515815260200191505060405180910390f35b61037461077f565b6040518080602001828103825283818151815260200191508051906020019080838360005b838110156103b4578082015181840152602081019050610399565b50505050905090810190601f1680156103e15780820380516001836020036101000a031916815260200191505b509250505060405180910390f35b61041d6004803603602081101561040557600080fd5b81019080803515159060200190929190505050610821565b005b806005908051906020019061043592919061083e565b5050565b606080606080606060006001600260036004848054600181600116156101000203166002900480601f0160208091040260200160405190810160405280929190818152602001828054600181600116156101000203166002900480156104e05780601f106104b5576101008083540402835291602001916104e0565b820191906000526020600020905b8154815290600101906020018083116104c357829003601f168201915b50505050509450838054600181600116156101000203166002900480601f01602080910402602001604051908101604052809291908181526020018280546001816001161561010002031660029004801561057c5780601f106105515761010080835404028352916020019161057c565b820191906000526020600020905b81548152906001019060200180831161055f57829003601f168201915b50505050509350828054600181600116156101000203166002900480601f0160208091040260200160405190810160405280929190818152602001828054600181600116156101000203166002900480156106185780601f106105ed57610100808354040283529160200191610618565b820191906000526020600020905b8154815290600101906020018083116105fb57829003601f168201915b50505050509250818054600181600116156101000203166002900480601f0160208091040260200160405190810160405280929190818152602001828054600181600116156101000203166002900480156106b45780601f10610689576101008083540402835291602001916106b4565b820191906000526020600020905b81548152906001019060200180831161069757829003601f168201915b50505050509150808054600181600116156101000203166002900480601f0160208091040260200160405190810160405280929190818152602001828054600181600116156101000203166002900480156107505780601f1061072557610100808354040283529160200191610750565b820191906000526020600020905b81548152906001019060200180831161073357829003601f168201915b50505050509050945094509450945094509091929394565b6000600660009054906101000a900460ff16905090565b606060058054600181600116156101000203166002900480601f0160208091040260200160405190810160405280929190818152602001828054600181600116156101000203166002900480156108175780601f106107ec57610100808354040283529160200191610817565b820191906000526020600020905b8154815290600101906020018083116107fa57829003601f168201915b5050505050905090565b80600660006101000a81548160ff02191690831515021790555050565b828054600181600116156101000203166002900490600052602060002090601f016020900481019282601f1061087f57805160ff19168380011785556108ad565b828001600101855582156108ad579182015b828111156108ac578251825591602001919060010190610891565b5b5090506108ba91906108be565b5090565b6108e091905b808211156108dc5760008160009055506001016108c4565b5090565b9056fea265627a7a7231582065ba43c3f2c01cb674b45851a07d1b8a1f9314f5a2c769918fb2582609a7af1264736f6c63430005100032a265627a7a72315820a32549550bad516b55af2180abc2f9a62e0da3e5fedb1490540a11095245784164736f6c63430005100032",
  "source": "pragma solidity >=0.4.25;\n\n// Contract for Home Page\ncontract Hospital {\n    struct Patient {\n        string name;\n        string dob;\n        string bGroup;\n        bytes32 id;\n    }\n    \n    bytes32 password = 0xc888c9ce9e098d5864d3ded6ebcc140a12142263bace3a23a36f9905f12bd64a;\n    address manager = msg.sender;\n    address public addid;\n    bytes32 public uniid;\n    \n    mapping(bytes32 => Patient) uniId;\n    mapping(address => bool) authAddress;\n    mapping(address => string) doctor;\n    mapping(address => string) hospital;\n    mapping(bytes32 => address) patid;\n    \n    address[] public patAddress;\n    Patient[] public patInfo;\n    \n    \n    \n    //Function adds new doctor (Only Contract deployer can add)\n    function addDoctor (string memory _name, string memory _hospital, string memory _password, address _index) public {\n        require(msg.sender == manager, \"Admin should be the Manager\");\n        require(!authAddress[_index], \"User already entered\");\n        bytes32 pass = keccak256(abi.encodePacked(_password));\n        \n        require(pass == password);\n        authAddress[_index] = true;\n        doctor[_index] = _name;\n        hospital[_index] = _hospital; \n\n    }\n    \n    \n    \n    // Function to view the doctor\n    function viewDoctor(address _index) public view returns (string memory, string memory, bool) {\n        return (\n            doctor[_index],\n            hospital[_index],\n            authAddress[_index]\n        );\n    }\n    \n    \n    \n    //Function to add patient (Only verified doctor can add patient)\n    function addPatient(string memory _name, string memory _dob, string memory _bGroup) public onlyOwner {\n        //Storing Patient's intitial data\n        Patient memory newPatient = Patient ({\n            name: _name,\n            dob: _dob,\n            bGroup: _bGroup,\n            id: keccak256(abi.encodePacked(block.difficulty, block.timestamp, _name, _bGroup))\n        }); \n        \n        patInfo.push(newPatient);\n        uniId[newPatient.id] = newPatient;\n        \n        //Call to Patient's personal records (Contract 2)\n        address pat = address(new PatHome(\n            newPatient.name,\n            newPatient.dob,\n            newPatient.bGroup,\n            newPatient.id,\n            doctor[msg.sender], \n            hospital[msg.sender] \n        ));\n        \n        patid[newPatient.id] = pat;\n        \n        addid = pat;\n        \n        uniid = newPatient.id;\n        \n    }\n    \n    \n    \n    //View patient's records using his unique ID\n    function enterPatient(bytes32 _id) public onlyOwner view returns (address){\n        require(uniId[_id].id == _id, \"Patient doesn't exist\");\n        \n        return (\n            patid[_id]  \n        );\n    }\n    \n    modifier onlyOwner {\n        require (authAddress[msg.sender], \"Only Authorized User can access the records\");\n        _;\n    }\n}\n\n\n\n\n\n//Contract to view records and ability to add new ones\ncontract PatHome {\n    string  name;\n    string  dob;\n    string  bGroup;\n    bytes32  id;\n    string doctor;\n    string hospital;\n\n    // To store all the Record Address of the patient\n    Record[] public addedRecords;\n    \n    constructor(string memory _name, string memory _dob, string memory _bGroup, bytes32 _id, string memory _doctor, string memory _hospital) public {\n        name = _name;\n        dob = _dob;\n        bGroup = _bGroup;\n        id = _id;\n        doctor = _doctor;\n        hospital = _hospital;\n    }\n    \n    \n    //function to add a new record (call to the 3rd contract)\n    function addrecord() public {\n        Record newRecord = new Record(name, dob, bGroup, doctor, hospital);\n        addedRecords.push(newRecord);\n    }\n    \n    \n    //to fetch all the records\n    function getRecords() public view returns (Record[] memory) {\n        return addedRecords;\n    }\n    \n    \n    //to get patient's summary\n    function getPatient() public view returns(string memory, string memory, string memory, bytes32) {\n        return (\n            name,\n            dob,\n            bGroup,\n            id\n        );\n    }\n    \n    \n    //to get doctor's summanry\n    function getDoctor() public view returns(string memory, string memory) {\n        return (\n          doctor,\n          hospital\n        );\n    }\n}\n\n\n\n\n\n//Contract to Add or view individual records\ncontract Record{\n    string name;\n    string dob;\n    string bGroup;\n    string doctor;\n    string hospital;\n    string recHash;\n    bool flag = true;\n    \n    constructor(string memory _name, string memory _dob, string memory _bGroup, string memory _doctor, string memory _hospital) public {\n        name = _name;\n        dob = _dob;\n        bGroup = _bGroup;\n        doctor = _doctor;\n        hospital = _hospital;\n    }\n    \n    function setHash(string memory _recHash) public {\n        recHash = _recHash;\n    }\n    \n    function getHash() public view returns (string memory) {\n        return recHash;\n    }\n    \n    function setvalidity(bool _flag) public {\n        flag = _flag;\n    } \n    \n    function getvalidity() public view returns (bool) {\n        return flag;\n    }\n    \n    function getSummary() public view returns(string memory, string memory, string memory, string memory, string memory) {\n        return (\n            name,\n            dob,\n            bGroup,\n            doctor,\n            hospital\n        );\n    }\n}\n",
  "sourcePath": "/home/shubhamskatel/patient/contracts/Hospital.sol",
  "compiler": {
    "name": "solc",
    "version": "0.5.16+commit.9c3226ce.Emscripten.clang"
  },
  "schemaVersion": "3.2.3",
  "updatedAt": "2021-02-15T06:55:10.292Z",
  "devdoc": {
    "methods": {}
  },
  "userdoc": {
    "methods": {}
  }
}