{
  "contractName": "Record",
  "abi": [
    {
      "inputs": [
        {
          "internalType": "string",
          "name": "_name",
          "type": "string"
        },
        {
          "internalType": "string",
          "name": "_dob",
          "type": "string"
        },
        {
          "internalType": "string",
          "name": "_bGroup",
          "type": "string"
        },
        {
          "internalType": "string",
          "name": "_doctor",
          "type": "string"
        },
        {
          "internalType": "string",
          "name": "_hospital",
          "type": "string"
        },
        {
          "internalType": "address",
          "name": "_disAddress",
          "type": "address"
        }
      ],
      "payable": false,
      "stateMutability": "nonpayable",
      "type": "constructor"
    },
    {
      "constant": true,
      "inputs": [],
      "name": "disAddress",
      "outputs": [
        {
          "internalType": "address",
          "name": "",
          "type": "address"
        }
      ],
      "payable": false,
      "stateMutability": "view",
      "type": "function"
    },
    {
      "constant": false,
      "inputs": [
        {
          "internalType": "string",
          "name": "_recHash",
          "type": "string"
        }
      ],
      "name": "setHash",
      "outputs": [],
      "payable": false,
      "stateMutability": "nonpayable",
      "type": "function"
    },
    {
      "constant": true,
      "inputs": [],
      "name": "getHash",
      "outputs": [
        {
          "internalType": "string",
          "name": "",
          "type": "string"
        }
      ],
      "payable": false,
      "stateMutability": "view",
      "type": "function"
    },
    {
      "constant": false,
      "inputs": [
        {
          "internalType": "bool",
          "name": "_flag",
          "type": "bool"
        }
      ],
      "name": "setvalidity",
      "outputs": [],
      "payable": false,
      "stateMutability": "nonpayable",
      "type": "function"
    },
    {
      "constant": true,
      "inputs": [],
      "name": "getvalidity",
      "outputs": [
        {
          "internalType": "bool",
          "name": "",
          "type": "bool"
        }
      ],
      "payable": false,
      "stateMutability": "view",
      "type": "function"
    },
    {
      "constant": true,
      "inputs": [],
      "name": "getSummary",
      "outputs": [
        {
          "internalType": "string",
          "name": "",
          "type": "string"
        },
        {
          "internalType": "string",
          "name": "",
          "type": "string"
        },
        {
          "internalType": "string",
          "name": "",
          "type": "string"
        },
        {
          "internalType": "string",
          "name": "",
          "type": "string"
        },
        {
          "internalType": "string",
          "name": "",
          "type": "string"
        }
      ],
      "payable": false,
      "stateMutability": "view",
      "type": "function"
    }
  ],
  "bytecode": "0x60806040526001600660146101000a81548160ff0219169083151502179055503480156200002c57600080fd5b5060405162000f3038038062000f30833981810160405260c08110156200005257600080fd5b81019080805160405193929190846401000000008211156200007357600080fd5b838201915060208201858111156200008a57600080fd5b8251866001820283011164010000000082111715620000a857600080fd5b8083526020830192505050908051906020019080838360005b83811015620000de578082015181840152602081019050620000c1565b50505050905090810190601f1680156200010c5780820380516001836020036101000a031916815260200191505b50604052602001805160405193929190846401000000008211156200013057600080fd5b838201915060208201858111156200014757600080fd5b82518660018202830111640100000000821117156200016557600080fd5b8083526020830192505050908051906020019080838360005b838110156200019b5780820151818401526020810190506200017e565b50505050905090810190601f168015620001c95780820380516001836020036101000a031916815260200191505b5060405260200180516040519392919084640100000000821115620001ed57600080fd5b838201915060208201858111156200020457600080fd5b82518660018202830111640100000000821117156200022257600080fd5b8083526020830192505050908051906020019080838360005b83811015620002585780820151818401526020810190506200023b565b50505050905090810190601f168015620002865780820380516001836020036101000a031916815260200191505b5060405260200180516040519392919084640100000000821115620002aa57600080fd5b83820191506020820185811115620002c157600080fd5b8251866001820283011164010000000082111715620002df57600080fd5b8083526020830192505050908051906020019080838360005b8381101562000315578082015181840152602081019050620002f8565b50505050905090810190601f168015620003435780820380516001836020036101000a031916815260200191505b50604052602001805160405193929190846401000000008211156200036757600080fd5b838201915060208201858111156200037e57600080fd5b82518660018202830111640100000000821117156200039c57600080fd5b8083526020830192505050908051906020019080838360005b83811015620003d2578082015181840152602081019050620003b5565b50505050905090810190601f168015620004005780820380516001836020036101000a031916815260200191505b506040526020018051906020019092919050505085600090805190602001906200042c929190620004de565b50846001908051906020019062000445929190620004de565b5083600290805190602001906200045e929190620004de565b50826003908051906020019062000477929190620004de565b50816004908051906020019062000490929190620004de565b5080600660006101000a81548173ffffffffffffffffffffffffffffffffffffffff021916908373ffffffffffffffffffffffffffffffffffffffff1602179055505050505050506200058d565b828054600181600116156101000203166002900490600052602060002090601f016020900481019282601f106200052157805160ff191683800117855562000552565b8280016001018555821562000552579182015b828111156200055157825182559160200191906001019062000534565b5b50905062000561919062000565565b5090565b6200058a91905b80821115620005865760008160009055506001016200056c565b5090565b90565b610993806200059d6000396000f3fe608060405234801561001057600080fd5b50600436106100625760003560e01c80631ed83fd4146100675780634051ddac14610122578063c4a28d3a14610355578063d13319c414610377578063ee799130146103fa578063fee347ae14610444575b600080fd5b6101206004803603602081101561007d57600080fd5b810190808035906020019064010000000081111561009a57600080fd5b8201836020820111156100ac57600080fd5b803590602001918460018302840111640100000000831117156100ce57600080fd5b91908080601f016020809104026020016040519081016040528093929190818152602001838380828437600081840152601f19601f820116905080830192505050505050509192919290505050610474565b005b61012a61048e565b60405180806020018060200180602001806020018060200186810386528b818151815260200191508051906020019080838360005b8381101561017a57808201518184015260208101905061015f565b50505050905090810190601f1680156101a75780820380516001836020036101000a031916815260200191505b5086810385528a818151815260200191508051906020019080838360005b838110156101e05780820151818401526020810190506101c5565b50505050905090810190601f16801561020d5780820380516001836020036101000a031916815260200191505b50868103845289818151815260200191508051906020019080838360005b8381101561024657808201518184015260208101905061022b565b50505050905090810190601f1680156102735780820380516001836020036101000a031916815260200191505b50868103835288818151815260200191508051906020019080838360005b838110156102ac578082015181840152602081019050610291565b50505050905090810190601f1680156102d95780820380516001836020036101000a031916815260200191505b50868103825287818151815260200191508051906020019080838360005b838110156103125780820151818401526020810190506102f7565b50505050905090810190601f16801561033f5780820380516001836020036101000a031916815260200191505b509a505050505050505050505060405180910390f35b61035d6107bd565b604051808215151515815260200191505060405180910390f35b61037f6107d4565b6040518080602001828103825283818151815260200191508051906020019080838360005b838110156103bf5780820151818401526020810190506103a4565b50505050905090810190601f1680156103ec5780820380516001836020036101000a031916815260200191505b509250505060405180910390f35b610402610876565b604051808273ffffffffffffffffffffffffffffffffffffffff1673ffffffffffffffffffffffffffffffffffffffff16815260200191505060405180910390f35b6104726004803603602081101561045a57600080fd5b8101908080351515906020019092919050505061089c565b005b806005908051906020019061048a9291906108b9565b5050565b606080606080606060006001600260036004848054600181600116156101000203166002900480601f0160208091040260200160405190810160405280929190818152602001828054600181600116156101000203166002900480156105355780601f1061050a57610100808354040283529160200191610535565b820191906000526020600020905b81548152906001019060200180831161051857829003601f168201915b50505050509450838054600181600116156101000203166002900480601f0160208091040260200160405190810160405280929190818152602001828054600181600116156101000203166002900480156105d15780601f106105a6576101008083540402835291602001916105d1565b820191906000526020600020905b8154815290600101906020018083116105b457829003601f168201915b50505050509350828054600181600116156101000203166002900480601f01602080910402602001604051908101604052809291908181526020018280546001816001161561010002031660029004801561066d5780601f106106425761010080835404028352916020019161066d565b820191906000526020600020905b81548152906001019060200180831161065057829003601f168201915b50505050509250818054600181600116156101000203166002900480601f0160208091040260200160405190810160405280929190818152602001828054600181600116156101000203166002900480156107095780601f106106de57610100808354040283529160200191610709565b820191906000526020600020905b8154815290600101906020018083116106ec57829003601f168201915b50505050509150808054600181600116156101000203166002900480601f0160208091040260200160405190810160405280929190818152602001828054600181600116156101000203166002900480156107a55780601f1061077a576101008083540402835291602001916107a5565b820191906000526020600020905b81548152906001019060200180831161078857829003601f168201915b50505050509050945094509450945094509091929394565b6000600660149054906101000a900460ff16905090565b606060058054600181600116156101000203166002900480601f01602080910402602001604051908101604052809291908181526020018280546001816001161561010002031660029004801561086c5780601f106108415761010080835404028352916020019161086c565b820191906000526020600020905b81548152906001019060200180831161084f57829003601f168201915b5050505050905090565b600660009054906101000a900473ffffffffffffffffffffffffffffffffffffffff1681565b80600660146101000a81548160ff02191690831515021790555050565b828054600181600116156101000203166002900490600052602060002090601f016020900481019282601f106108fa57805160ff1916838001178555610928565b82800160010185558215610928579182015b8281111561092757825182559160200191906001019061090c565b5b5090506109359190610939565b5090565b61095b91905b8082111561095757600081600090555060010161093f565b5090565b9056fea265627a7a723158202537ba57ab4a5fb0cbea6f494908ad2632ad9c6c9494e97b2fc20ab36529748164736f6c63430005100032",
  "source": "pragma solidity >=0.4.25;\n\n// Contract for Home Page\ncontract Hospital {\n    struct Patient {\n        string name;\n        string dob;\n        string bGroup;\n        bytes32 id;\n    }\n    \n    bytes32 password = 0xc888c9ce9e098d5864d3ded6ebcc140a12142263bace3a23a36f9905f12bd64a;\n    address manager = msg.sender;\n    address public addid;\n    bytes32 public uniid;\n    \n    mapping(bytes32 => Patient) uniId;\n    mapping(address => bool) authAddress;\n    mapping(address => string) doctor;\n    mapping(address => string) hospital;\n    mapping(bytes32 => address) patid;\n    \n    address[] public patAddress;\n    Patient[] public patInfo;\n    \n    \n    \n\n    //Function adds new doctor (Only Contract deployer can add)\n    function addDoctor (string memory _name, string memory _hospital, string memory _password, address _index) public {\n        require(msg.sender == manager, \"Admin should be the Manager\");\n        require(!authAddress[_index], \"User already entered\");\n        bytes32 pass = keccak256(abi.encodePacked(_password));\n        \n        require(pass == password);\n        authAddress[_index] = true;\n        doctor[_index] = _name;\n        hospital[_index] = _hospital; \n\n    }\n    \n    \n    \n    // Function to view the doctor\n    function viewDoctor(address _index) public view returns (string memory, string memory, bool) {\n        return (\n            doctor[_index],\n            hospital[_index],\n            authAddress[_index]\n        );\n    }\n    \n    \n    \n    //Function to add patient (Only verified doctor can add patient)\n    function addPatient(string memory _name, string memory _dob, string memory _bGroup) public onlyOwner {\n        //Storing Patient's intitial data\n        Patient memory newPatient = Patient ({\n            name: _name,\n            dob: _dob,\n            bGroup: _bGroup,\n            id: keccak256(abi.encodePacked(block.difficulty, block.timestamp, _name, _bGroup))\n        }); \n        \n        patInfo.push(newPatient);\n        uniId[newPatient.id] = newPatient;\n        \n        //Call to Patient's personal records (Contract 2)\n        address pat = address(new PatHome(\n            newPatient.name,\n            newPatient.dob,\n            newPatient.bGroup,\n            newPatient.id,\n            doctor[msg.sender], \n            hospital[msg.sender] \n        ));\n        \n        patid[newPatient.id] = pat;\n        \n        addid = pat;\n        \n        uniid = newPatient.id;\n        \n    }\n    \n    \n    \n    //View patient's records using his unique ID\n    function enterPatient(bytes32 _id) public onlyOwner view returns (address){\n        require(uniId[_id].id == _id, \"Patient doesn't exist\");\n        \n        return (\n            patid[_id]  \n        );\n    }\n    \n    modifier onlyOwner {\n        require (authAddress[msg.sender], \"Only Authorized User can access the records\");\n        _;\n    }\n}\n\n\n\n\n\n//Contract to view records and ability to add new ones\ncontract PatHome {\n    string  name;\n    string  dob;\n    string  bGroup;\n    bytes32  id;\n    string doctor;\n    string hospital;\n    address public addr;\n    address disAddress;\n\n    // To store all the Record Address of the patient\n    address[] public addedRecords;\n    \n    constructor(string memory _name, string memory _dob, string memory _bGroup, bytes32 _id, string memory _doctor, string memory _hospital) public {\n        name = _name;\n        dob = _dob;\n        bGroup = _bGroup;\n        id = _id;\n        doctor = _doctor;\n        hospital = _hospital;\n        disAddress = address(this);\n    }\n    \n    \n    //function to add a new record (call to the 3rd contract)\n    function addrecord() public {\n        address newRecord = address(new Record(name, dob, bGroup, doctor, hospital, disAddress));\n        addedRecords.push(newRecord);\n        addr = newRecord;\n    }\n    \n    \n    //to fetch all the records\n    function getRecords() public view returns (address[] memory) {\n        return addedRecords;\n    }\n    \n    \n    //to get patient's summary\n    function getPatient() public view returns(string memory, string memory, string memory, bytes32) {\n        return (\n            name,\n            dob,\n            bGroup,\n            id\n        );\n    }\n    \n    \n    //to get doctor's summanry\n    function getDoctor() public view returns(string memory, string memory) {\n        return (\n          doctor,\n          hospital\n        );\n    }\n}\n\n\n\n\n\n//Contract to Add or view individual records\ncontract Record{\n    \n    string name;\n    string dob;\n    string bGroup;\n    string doctor;\n    string hospital;\n    string recHash;\n    address public disAddress;\n    bool flag = true;\n    \n    constructor(string memory _name, string memory _dob, string memory _bGroup, string memory _doctor, string memory _hospital, address _disAddress) public {\n        name = _name;\n        dob = _dob;\n        bGroup = _bGroup;\n        doctor = _doctor;\n        hospital = _hospital;\n        disAddress = _disAddress;\n    }\n    \n    function setHash(string memory _recHash) public {\n        recHash = _recHash;\n    }\n    \n    function getHash() public view returns (string memory) {\n        return recHash;\n    }\n    \n    function setvalidity(bool _flag) public {\n        flag = _flag;\n    } \n    \n    function getvalidity() public view returns (bool) {\n        return flag;\n    }\n    \n    function getSummary() public view returns(string memory, string memory, string memory, string memory, string memory) {\n        return (\n            name,\n            dob,\n            bGroup,\n            doctor,\n            hospital\n        );\n    }\n}\n",
  "sourcePath": "/home/shubhamskatel/patient/contracts/Hospital.sol",
  "compiler": {
    "name": "solc",
    "version": "0.5.16+commit.9c3226ce.Emscripten.clang"
  },
  "schemaVersion": "3.2.3",
  "updatedAt": "2021-03-03T06:03:34.839Z",
  "devdoc": {
    "methods": {}
  },
  "userdoc": {
    "methods": {}
  }
}